:100000000C9462000C948A000C948A000C948A0070
:100010000C948A000C948A000C948A000C948A0038
:100020000C948A000C948A000C948A000C948A0028
:100030000C948A000C948A000C948A000C948A0018
:100040000C94AB050C948A000C9479050C94530520
:100050000C948A000C948A000C948A000C948A00F8
:100060000C948A000C948A000000000024002700F1
:100070002A0000000000250028002B0000000008D6
:10008000000201000003040700000000000000005F
:1000900000000000230026002900040404040404D6
:1000A0000404020202020202030303030303010227
:1000B00004081020408001020408102001020408F6
:1000C0001020F50511241FBECFEFD8E0DEBFCDBF55
:1000D00011E0A0E0B1E0E2E3F4E102C005900D928E
:1000E000A835B107D9F722E0A8E5B1E001C01D921B
:1000F000A932B207E1F710E0C2E6D0E004C02197D0
:10010000FE010E94110AC136D107C9F70E9460069C
:100110000C94170A0C940000CF92DF92EF92FF929A
:10012000CF93DF93B0910502A0E08111AB2F8091B6
:10013000060290E0880F991FAC0140575F4FC090B6
:100140000B02D0900C02E0900D02F0900E0230E015
:1001500020E0FA01C591D491E881B90190E080E0F6
:10016000EB23EA130AC02F5F3F4F6C157D058E0508
:100170009F0578F36FEF7FEFCB01DF91CF91FF9079
:10018000EF90DF90CF900895FC01538D448D252F83
:1001900030E0842F90E0821B930B541710F0CF9621
:1001A000089501970895FC01918D828D981761F053
:1001B000A28DAE0FBF2FB11D5D968C91928D9F5F6A
:1001C0009F73928F90E008958FEF9FEF0895FC0149
:1001D000918D828D981731F0828DE80FF11D858DFC
:1001E00090E008958FEF9FEF0895FC01918D228D8F
:1001F000892F90E0805C9F4F821B91098F73992714
:100200000895FC01A48DA80FB92FB11DA35ABF4FAB
:100210002C91848D90E001968F739927848FA68905
:10022000B7892C93A089B1898C91837080648C9359
:10023000938D848D981306C00288F389E02D808108
:100240008F7D80830895EF92FF920F931F93CF933A
:10025000DF93EC0181E0888F9B8D8C8D98131AC001
:10026000E889F989808185FF15C09FB7F894EE89E8
:10027000FF896083E889F989808183708064808345
:100280009FBF81E090E0DF91CF911F910F91FF9090
:10029000EF900895F62E0B8D10E00F5F1F4F0F7338
:1002A0001127E02E8C8D8E110CC00FB607FCFACFF3
:1002B000E889F989808185FFF5CFCE010E9401018F
:1002C000F1CFEB8DEC0FFD2FF11DE35AFF4FF082C4
:1002D0009FB7F8940B8FEA89FB8980818062CFCF2A
:1002E000CF93DF93EC01888D8823B9F0AA89BB896D
:1002F000E889F9898C9185FD03C0808186FD0DC058
:100300000FB607FCF7CF8C9185FFF2CF808185FF78
:10031000EDCFCE010E940101E9CFDF91CF91089589
:1003200081E691E00E94F50021E0892B09F420E0AC
:10033000822F089580E090E0892B29F00E9490019F
:1003400081110C9400000895AF92BF92CF92DF927A
:10035000EF92FF920F931F93CF93DF936C017B017A
:100360008B01040F151FEB015E01AE18BF08C0170B
:10037000D10759F06991D601ED91FC910190F0817E
:10038000E02DC6010995892B79F7C501DF91CF9141
:100390001F910F91FF90EF90DF90CF90BF90AF90A3
:1003A0000895833081F028F4813099F08230A9F0EB
:1003B00008958730A9F08830C9F08430B1F4809175
:1003C00080008F7D03C0809180008F7780938000B4
:1003D000089584B58F7784BD089584B58F7DFBCF54
:1003E0008091B0008F778093B00008958091B00025
:1003F0008F7DF9CFCF93DF93282F30E0F901E458B8
:10040000FF4F8491F901E255FF4FD491F901E6566F
:10041000FF4FC491CC23A1F081110E94D101EC2F98
:10042000F0E0EE0FFF1FE057FF4FA591B491EC9164
:10043000ED2381E090E009F480E0DF91CF91089511
:1004400080E090E0FACF1F93CF93DF93282F30E026
:10045000F901E458FF4F8491F901E255FF4FD4911F
:10046000F901E656FF4FC491CC23A9F0162F811154
:100470000E94D101EC2FF0E0EE0FFF1FEE58FF4F6E
:10048000A591B4918FB7F894EC91111108C0D09553
:10049000DE23DC938FBFDF91CF911F910895DE2B78
:1004A000F8CFCF93DF9390E0FC01E255FF4F24910A
:1004B00086569F4FFC0184918823D1F090E0880FED
:1004C000991FFC01E859FF4FA591B491FC01EE582A
:1004D000FF4FC591D491623071F49FB7F8943C916D
:1004E000822F809583238C93E8812E2B28839FBFB6
:1004F000DF91CF9108958FB7F894EC912E2B2C9328
:100500008FBFF6CF3FB7F8948091590190915A016F
:10051000A0915B01B0915C0126B5A89B05C02F3F5F
:1005200019F00196A11DB11D3FBFBA2FA92F982F19
:100530008827BC01CD01620F711D811D911D42E014
:10054000660F771F881F991F4A95D1F708958F92DC
:100550009F92AF92BF92CF92DF92EF92FF924B01A8
:100560005C010E9482026B017C010E9482026C1974
:100570007D098E099F09683E734081059105A8F3A6
:1005800021E0821A9108A108B10888EEC80E83E024
:10059000D81EE11CF11C81149104A104B10429F7B7
:1005A000FF90EF90DF90CF90BF90AF909F908F9093
:1005B0000895CF92DF92EF92FF920F931F93CF9304
:1005C000DF93CDB7DEB7C054D1400FB6F894DEBF8D
:1005D0000FBECDBF2FB7F89480915D0190915E0161
:1005E000A0915F01B09160012FBF4091070250912F
:1005F00008026091090270910A028C019D01041B9E
:10060000150B260B370BB901A801403D574061057A
:10061000710590F480910F02C05CDE4F0FB6F89424
:10062000DEBF0FBECDBFDF91CF911F910F91FF9025
:10063000EF90DF90CF900895809307029093080287
:10064000A0930902B0930A021092020210920102D2
:10065000109200021092FF011092FE0162E0809160
:1006600003020E94510261E070E080E090E00E948D
:10067000A70261E0809103020E94510260E0809134
:1006800003020E942302809104028551823020F5EA
:100690008BE291E10197F1F762E0809103020E9401
:1006A00051028091100290E08230910538F0880F5D
:1006B000991F880F991F05970197F1F7F89480E02B
:1006C0000E948C006F3F7F4F8F4F9F4F61F41092BD
:1006D0000F02789480E0A0CF64E170E080E090E0C9
:1006E0000E94A702D9CF81E00E948C006F3F7F4F0C
:1006F0008F4F9F4F61F38E010F5F1F4F6E018FEB86
:10070000C81A8EEFD80A780180E00E948C00F701A9
:10071000608371838283938381E00E948C00F70160
:100720006483758386839783F8E0EF0EF11CEC14E5
:10073000FD0451F7789430E020E0F801C080D180CA
:10074000E280F3804481558166817781FFEFCF1687
:10075000DF06EF06FF0631F04F3F8FEF58076807BF
:10076000780719F410920F02B5CFF90183E0F595DF
:10077000E7958A95E1F7E250FE4F8081880FC41615
:10078000D506E606F70610F180832F5F3F4F085F1E
:100790001F4F2832310589F6409102022091FE0157
:1007A0008091FF01280F3327331F80910002280F0B
:1007B000311D80910102820F932F911D99274817B7
:1007C000190681F681E080930F0226CF8160DCCF8D
:1007D000089590E080E00895FC0101900020E9F781
:1007E0003197AF01481B590BBC0181E192E00C9499
:1007F000A401CF93DF93EC0160E08E810E9423027D
:1008000061E08E810E94230260E08E810E942302BB
:100810008BE891E00197F1F7DF91CF910895CF92A6
:10082000DF92EF92FF920F931F93CF93DF936C01B0
:100830007C0187E0E80EF11CD0E0C0E0062F10E05C
:10084000B8010C2E02C0759567950A94E2F76170A5
:10085000F70181917F010E9423022196C430D105C6
:1008600079F7C601DF91CF911F910F91FF90EF9023
:10087000DF90CF900C94F903CF92DF92EF92FF922A
:100880000F931F93CF93DF93EC01F62E642F8C818F
:100890000E9423028D818F3F19F060E00E942302A5
:1008A0000F2D10E08F8584FF25C06E0187E0C80EF4
:1008B000D11CF12CE12CB8010E2C02C07595679566
:1008C0000A94E2F76170F60181916F010E942302A0
:1008D000FFEFEF1AFF0A88E0E816F10461F7CE0196
:1008E000DF91CF911F910F91FF90EF90DF90CF900C
:1008F0000C94F903B80184E0759567958A95E1F742
:10090000CE010E940F046F2DCE01DF91CF911F9178
:100910000F91FF90EF90DF90CF900C940F0440E088
:10092000682F81E192E00C943C0481E00E948F04E6
:100930008BE39FE10197F1F70895CF93DF93823026
:1009400029F49091200298609093200280932402D1
:100950001092250280E48093260280E18093270292
:1009600080E58093280261E0809115020E94510287
:10097000809116028F3F19F061E00E94510261E000
:10098000809117020E945102C1E1D2E09E012151E3
:1009900032408091200284FD0BC084E090E02196DB
:1009A0002817390744F461E08E810E945102EECF8E
:1009B00088E090E0F4CF8BE39DE00197F1F760E0F1
:1009C000809115020E94230260E0809117020E942C
:1009D0002302809116028F3F19F060E00E942302EB
:1009E0008091200284FD34C063E081E192E00E94A6
:1009F0000F04CBE4D6E4CE010197F1F763E081E187
:100A000092E00E940F042197F1F763E081E192E008
:100A10000E940F0483E592E00197F1F762E081E123
:100A200092E00E940F048091200280620E948F0455
:100A300084E0809321028CE00E948F040E94950440
:100A400082E08093220286E0DF91CF910C948F04A4
:100A500080620E948F048BE496E40197F1F7809105
:100A6000200280620E948F0483E592E00197F1F7F3
:100A70008091200280620E948F04D5CF9091240241
:100A8000691710F06FEF690FE62FF0E0EF5EFD4F92
:100A90009489890F80680C948F0441E00E943C0483
:100AA00081E090E008951F920F920FB60F921124EB
:100AB0002F933F934F935F936F937F938F939F9366
:100AC000AF93BF93EF93FF9381E691E00E94010102
:100AD000FF91EF91BF91AF919F918F917F916F9116
:100AE0005F914F913F912F910F900FBE0F901F90EC
:100AF00018951F920F920FB60F9211242F938F9378
:100B00009F93EF93FF93E0917101F09172018081C7
:100B1000E0917701F091780182FD1BC09081809176
:100B20007A018F5F8F7320917B01821741F0E091F2
:100B30007A01F0E0EF59FE4F958F80937A01FF9193
:100B4000EF919F918F912F910F900FBE0F901F905B
:100B500018958081F4CF1F920F920FB60F92112437
:100B60002F933F938F939F93AF93BF9380915D019A
:100B700090915E01A0915F01B091600130915801A8
:100B800023E0230F2D3758F50196A11DB11D2093A9
:100B9000580180935D0190935E01A0935F01B09333
:100BA00060018091590190915A01A0915B01B0912F
:100BB0005C010196A11DB11D8093590190935A01CA
:100BC000A0935B01B0935C01BF91AF919F918F9116
:100BD0003F912F910F900FBE0F901F90189526E810
:100BE000230F0296A11DB11DD2CFE1E6F1E01382E1
:100BF000128288EE93E0A0E0B0E084839583A68320
:100C0000B78384E291E09183808385EC90E09587BF
:100C1000848784EC90E09787868780EC90E0918BC6
:100C2000808B81EC90E0938B828B82EC90E0958BB3
:100C3000848B86EC90E0978B868B118E128E138EB0
:100C4000148EE1E1F2E01382128286E391E0918357
:100C5000808387E084838FEF858386E0868385E0C9
:100C6000878384E0808783E0818782E082871386A0
:100C7000148615861686178681E00E949D04AEEFC5
:100C8000B1E088E015968C9315978BE016968C93BF
:100C90001697E6EBF0E0E4911796EC931797E2EAEB
:100CA000F0E0E4911896EC93189740E85EE360E07A
:100CB00070E01D964D935D936D937C9350970895CE
:100CC000789484B5826084BD84B5816084BD85B527
:100CD000826085BD85B5816085BD80916E00816033
:100CE00080936E00109281008091810082608093D9
:100CF00081008091810081608093810080918000DB
:100D00008160809380008091B10084608093B10005
:100D10008091B00081608093B00080917A008460FF
:100D200080937A0080917A00826080937A0080912B
:100D30007A00816080937A0080917A008068809345
:100D40007A001092C10082E00E949D0462E08FE070
:100D50000E94510262E08EE00E94510261E089E04F
:100D60000E94510261E08AE00E94510262E080919B
:100D700003020E9451022FB7F89480915D01909177
:100D80005E01A0915F01B09160012FBF805D97402F
:100D9000A109B1098093070290930802A093090268
:100DA000B0930A0287E3809310029AE0D92EC0E044
:100DB000D0E02FEDA22E8EE00E94FA018C018FE090
:100DC0000E94FA017C010E94D902882349F0809197
:100DD00004028B3028F08D3040F085518230A8F12C
:100DE00060E070E080EC9FE71CC06091FF0170E064
:100DF00090E080E00E94E3082DEC3CEC4CEC5DE3DD
:100E00000E946F092B013C016091FE0170E090E0AF
:100E100080E00E94E3089B01AC01C301B2010E9483
:100E200046080E94B208C62E0E94D902882341F0CB
:100E3000809104028C3009F48BC0C8F48B3081F1AE
:100E400060E070E080EC9FE753C06091FE0170911C
:100E5000FF0176276727762790E080E00E94E1086F
:100E60002DEC3CEC4CEC5DE30E946F09DACF855130
:100E7000823030F7B09000026B2D70E0762F66273D
:100E800066277F7780910102682B90E080E00E94C6
:100E9000E1082DEC3CEC4CEC5DE30E946F0974C062
:100EA0006091000270E090E080E00E94E1082B0178
:100EB0003C01B0900102B7FE0AC0AC019B0160E0AA
:100EC00070E080E89FEB0E9445082B013C016B2DF0
:100ED0006F7070E090E080E00E94E3082DEC3CEC45
:100EE0004CEC5DE30E946F09A30192010E94460849
:100EF0000E94B208B62E6C2D70E090E080E00E9457
:100F0000E1089B01AC010E94DC0981110CC06B2D32
:100F100070E090E080E00E94E1089B01AC010E943B
:100F2000DC098823A9F10E94950460E085E00E9415
:100F30003E058EE391E00E94EC03209709F43BCF3D
:100F40000E949001882309F436CF0E94000033CF1D
:100F5000B09000026B2D70E090E080E00E94E1080C
:100F60002B013C01609101026F7070E090E080E025
:100F70000E94E3082DEC3CEC4CEC5DE30E946F0911
:100F8000A30192010E944608B7FEB2CF9058B0CF9D
:100F90008B2D6D2D0E94050A805D80931701905D59
:100FA00090931801A0921B018C2D0E94050A805D70
:100FB00080930701905D9093080160E080E00E94BB
:100FC0003E0580E191E00E94EC0361E080E00E9438
:100FD0003E0580E091E00E94EC03EA94EF2841F5A1
:100FE0000E94950461E089E00E94230261E08AE0AA
:100FF0000E94230260E086E00E943E0584E491E0C6
:101000000E94EC0361E083E00E943E0588E491E0E9
:101010000E94EC0368EC70E080E090E00E94A70280
:1010200060E089E00E94230260E08AE00E942302DF
:101030000130110509F081CF0E94950461E089E03B
:101040000E94230261E08AE00E94230260E085E0C2
:101050000E943E0581E591E00E94EC0361E083E09F
:101060000E943E0588E491E00E94EC0368EC70E089
:1010700080E090E00E94A70260E089E00E942302E5
:1010800060E08AE00E94230258CF5058BB27AA276D
:101090000E945D080C9435090E94270938F00E94CF
:1010A0002E0920F039F49F3F19F426F40C942409FA
:1010B0000EF4E095E7FB0C941E09E92F0E94460907
:1010C00058F3BA17620773078407950720F079F47D
:1010D000A6F50C9468090EF4E0950B2EBA2FA02DFE
:1010E0000B01B90190010C01CA01A0011124FF27D5
:1010F000591B99F0593F50F4503E68F11A16F040D0
:10110000A22F232F342F4427585FF3CF46953795CE
:101110002795A795F0405395C9F77EF41F16BA0B93
:10112000620B730B840BBAF09150A1F0FF0FBB1F41
:10113000661F771F881FC2F70EC0BA0F621F731F8A
:10114000841F48F4879577956795B795F7959E3FE7
:1011500008F0B0CF9395880F08F09927EE0F979578
:10116000879508950E944E0988F09F5798F0B92FEF
:101170009927B751B0F0E1F0660F771F881F991FCC
:101180001AF0BA95C9F714C0B13091F00E946809FD
:10119000B1E008950C946809672F782F8827B85F0D
:1011A00039F0B93FCCF3869577956795B395D9F724
:1011B0003EF490958095709561957F4F8F4F9F4F2E
:1011C0000895E89409C097FB3EF49095809570953A
:1011D00061957F4F8F4F9F4F9923A9F0F92F96E983
:1011E000BB279395F695879577956795B795F111F8
:1011F000F8CFFAF4BB0F11F460FF1BC06F5F7F4F95
:101200008F4F9F4F16C0882311F096E911C07723A6
:1012100021F09EE8872F762F05C0662371F096E8AF
:10122000862F70E060E02AF09A95660F771F881F7E
:10123000DAF7880F9695879597F9089597F99F673C
:1012400080E870E060E008959FEF80EC089500244E
:101250000A941616170618060906089500240A941B
:1012600012161306140605060895092E0394000CA1
:1012700011F4882352F0BB0F40F4BF2B11F460FF30
:1012800004C06F5F7F4F8F4F9F4F089557FD905859
:10129000440F551F59F05F3F71F04795880F97FB3A
:1012A000991F61F09F3F79F08795089512161306F4
:1012B0001406551FF2CF4695F1DF08C01616170623
:1012C0001806991FF1CF8695710561050894089558
:1012D000E894BB2766277727CB0197F908950E94EA
:1012E00082090C9435090E94270938F00E942E09C2
:1012F00020F0952311F00C941E090C94240911245C
:101300000C9469090E94460970F3959FC1F3950FEB
:1013100050E0551F629FF001729FBB27F00DB11D79
:10132000639FAA27F00DB11DAA1F649F6627B00D09
:10133000A11D661F829F2227B00DA11D621F739FF2
:10134000B00DA11D621F839FA00D611D221F749F00
:101350003327A00D611D231F849F600D211D822F47
:10136000762F6A2F11249F5750409AF0F1F088236E
:101370004AF0EE0FFF1FBB1F661F771F881F91509B
:101380005040A9F79E3F510580F00C941E090C9423
:1013900069095F3FE4F3983ED4F3869577956795A6
:1013A000B795F795E7959F5FC1F7FE2B880F911DC5
:1013B0009695879597F908950E94E109880B990BF6
:1013C0000895990F0008550FAA0BE0E8FEEF1616D6
:1013D0001706E807F907C0F012161306E407F50729
:1013E00098F0621B730B840B950B39F40A2661F09D
:1013F000232B242B252B21F408950A2609F4A14040
:10140000A6958FEF811D811D0895991B79E004C079
:10141000991F961708F0961B881F7A95C9F7809533
:101420000895EE0FFF1F0590F491E02D0994F894B4
:02143000FFCFEC
:1014320052482020203D2030302E30202520200010
:1014420054656D70203D2030302E30204320200026
:10145200000000002301A401C4007001F500D300C4
:10146200E700000000004D05A401E903E80345720E
:10147200726F7200474153004445544543544544FA
:0814820000464C414D450000FD
:00000001FF
